{
  "contractName": "LandRegistry",
  "abi": [
    {
      "inputs": [],
      "stateMutability": "payable",
      "type": "constructor"
    },
    {
      "anonymous": false,
      "inputs": [
        {
          "indexed": true,
          "internalType": "address",
          "name": "newAuthority",
          "type": "address"
        }
      ],
      "name": "AuthorityChanged",
      "type": "event"
    },
    {
      "anonymous": false,
      "inputs": [
        {
          "indexed": true,
          "internalType": "uint256",
          "name": "id",
          "type": "uint256"
        },
        {
          "indexed": true,
          "internalType": "address",
          "name": "oldOwner",
          "type": "address"
        },
        {
          "indexed": true,
          "internalType": "address",
          "name": "newOwner",
          "type": "address"
        },
        {
          "indexed": false,
          "internalType": "uint256",
          "name": "price",
          "type": "uint256"
        }
      ],
      "name": "LandPurchased",
      "type": "event"
    },
    {
      "anonymous": false,
      "inputs": [
        {
          "indexed": true,
          "internalType": "uint256",
          "name": "id",
          "type": "uint256"
        },
        {
          "indexed": true,
          "internalType": "address",
          "name": "owner",
          "type": "address"
        }
      ],
      "name": "LandRegistered",
      "type": "event"
    },
    {
      "anonymous": false,
      "inputs": [
        {
          "indexed": true,
          "internalType": "address",
          "name": "to",
          "type": "address"
        },
        {
          "indexed": false,
          "internalType": "uint256",
          "name": "amount",
          "type": "uint256"
        }
      ],
      "name": "Withdrawal",
      "type": "event"
    },
    {
      "inputs": [],
      "name": "contractBalance",
      "outputs": [
        {
          "internalType": "uint256",
          "name": "",
          "type": "uint256"
        }
      ],
      "stateMutability": "view",
      "type": "function"
    },
    {
      "inputs": [],
      "name": "landCounter",
      "outputs": [
        {
          "internalType": "uint256",
          "name": "",
          "type": "uint256"
        }
      ],
      "stateMutability": "view",
      "type": "function"
    },
    {
      "inputs": [],
      "name": "landRegistryAuthority",
      "outputs": [
        {
          "internalType": "address",
          "name": "",
          "type": "address"
        }
      ],
      "stateMutability": "view",
      "type": "function"
    },
    {
      "inputs": [
        {
          "internalType": "uint256",
          "name": "",
          "type": "uint256"
        }
      ],
      "name": "lands",
      "outputs": [
        {
          "internalType": "uint256",
          "name": "id",
          "type": "uint256"
        },
        {
          "internalType": "address",
          "name": "owner",
          "type": "address"
        },
        {
          "internalType": "string",
          "name": "plotNumber",
          "type": "string"
        },
        {
          "internalType": "string",
          "name": "location",
          "type": "string"
        },
        {
          "internalType": "string",
          "name": "city",
          "type": "string"
        },
        {
          "internalType": "string",
          "name": "state",
          "type": "string"
        },
        {
          "internalType": "uint256",
          "name": "price",
          "type": "uint256"
        },
        {
          "internalType": "bool",
          "name": "forSale",
          "type": "bool"
        }
      ],
      "stateMutability": "view",
      "type": "function"
    },
    {
      "stateMutability": "payable",
      "type": "receive"
    },
    {
      "inputs": [
        {
          "internalType": "address",
          "name": "_newAuthority",
          "type": "address"
        }
      ],
      "name": "setAuthority",
      "outputs": [],
      "stateMutability": "nonpayable",
      "type": "function"
    },
    {
      "inputs": [
        {
          "internalType": "string",
          "name": "_plotNumber",
          "type": "string"
        },
        {
          "internalType": "string",
          "name": "_location",
          "type": "string"
        },
        {
          "internalType": "string",
          "name": "_city",
          "type": "string"
        },
        {
          "internalType": "string",
          "name": "_state",
          "type": "string"
        },
        {
          "internalType": "uint256",
          "name": "_price",
          "type": "uint256"
        }
      ],
      "name": "registerLand",
      "outputs": [],
      "stateMutability": "nonpayable",
      "type": "function"
    },
    {
      "inputs": [],
      "name": "getAvailableLands",
      "outputs": [
        {
          "components": [
            {
              "internalType": "uint256",
              "name": "id",
              "type": "uint256"
            },
            {
              "internalType": "address",
              "name": "owner",
              "type": "address"
            },
            {
              "internalType": "string",
              "name": "plotNumber",
              "type": "string"
            },
            {
              "internalType": "string",
              "name": "location",
              "type": "string"
            },
            {
              "internalType": "string",
              "name": "city",
              "type": "string"
            },
            {
              "internalType": "string",
              "name": "state",
              "type": "string"
            },
            {
              "internalType": "uint256",
              "name": "price",
              "type": "uint256"
            },
            {
              "internalType": "bool",
              "name": "forSale",
              "type": "bool"
            }
          ],
          "internalType": "struct LandRegistry.Land[]",
          "name": "",
          "type": "tuple[]"
        }
      ],
      "stateMutability": "view",
      "type": "function"
    },
    {
      "inputs": [
        {
          "internalType": "uint256",
          "name": "_id",
          "type": "uint256"
        }
      ],
      "name": "buyLand",
      "outputs": [],
      "stateMutability": "payable",
      "type": "function"
    },
    {
      "inputs": [
        {
          "internalType": "uint256",
          "name": "_id",
          "type": "uint256"
        }
      ],
      "name": "getLandById",
      "outputs": [
        {
          "internalType": "uint256",
          "name": "",
          "type": "uint256"
        },
        {
          "internalType": "address",
          "name": "",
          "type": "address"
        },
        {
          "internalType": "string",
          "name": "",
          "type": "string"
        },
        {
          "internalType": "string",
          "name": "",
          "type": "string"
        },
        {
          "internalType": "string",
          "name": "",
          "type": "string"
        },
        {
          "internalType": "string",
          "name": "",
          "type": "string"
        },
        {
          "internalType": "uint256",
          "name": "",
          "type": "uint256"
        },
        {
          "internalType": "bool",
          "name": "",
          "type": "bool"
        }
      ],
      "stateMutability": "view",
      "type": "function"
    },
    {
      "inputs": [],
      "name": "getContractBalance",
      "outputs": [
        {
          "internalType": "uint256",
          "name": "",
          "type": "uint256"
        }
      ],
      "stateMutability": "view",
      "type": "function"
    },
    {
      "inputs": [
        {
          "internalType": "uint256",
          "name": "_amount",
          "type": "uint256"
        }
      ],
      "name": "withdraw",
      "outputs": [],
      "stateMutability": "nonpayable",
      "type": "function"
    }
  ],
  "bytecode": "0x60806040525f600155335f806101000a81548173ffffffffffffffffffffffffffffffffffffffff021916908373ffffffffffffffffffffffffffffffffffffffff160217905550346002819055506122f38061005b5f395ff3fe60806040526004361061009f575f3560e01c80638b7afe2e116100635780638b7afe2e146101a85780638d61a156146101d25780639e29ce18146101fc578063c5ba3fd114610226578063ced395581461024e578063e261f1e51461026a576100bd565b80632e1a7d4d146100c15780636b7aa615146100e95780636f9fb98a14610113578063727c04c81461013d5780637a9e5e4b14610180576100bd565b366100bd573460025f8282546100b5919061154b565b925050819055005b5f80fd5b3480156100cc575f80fd5b506100e760048036038101906100e291906115b9565b6102ad565b005b3480156100f4575f80fd5b506100fd610450565b60405161010a9190611623565b60405180910390f35b34801561011e575f80fd5b50610127610473565b604051610134919061164b565b60405180910390f35b348015610148575f80fd5b50610163600480360381019061015e91906115b9565b61047a565b604051610177989796959493929190611708565b60405180910390f35b34801561018b575f80fd5b506101a660048036038101906101a191906117ca565b6107f9565b005b3480156101b3575f80fd5b506101bc610979565b6040516101c9919061164b565b60405180910390f35b3480156101dd575f80fd5b506101e661097f565b6040516101f391906119e7565b60405180910390f35b348015610207575f80fd5b50610210610d90565b60405161021d919061164b565b60405180910390f35b348015610231575f80fd5b5061024c60048036038101906102479190611b33565b610d96565b005b610268600480360381019061026391906115b9565b610f76565b005b348015610275575f80fd5b50610290600480360381019061028b91906115b9565b611235565b6040516102a4989796959493929190611708565b60405180910390f35b5f8054906101000a900473ffffffffffffffffffffffffffffffffffffffff1673ffffffffffffffffffffffffffffffffffffffff163373ffffffffffffffffffffffffffffffffffffffff161461033a576040517f08c379a000000000000000000000000000000000000000000000000000000000815260040161033190611c8a565b60405180910390fd5b4781111561037d576040517f08c379a000000000000000000000000000000000000000000000000000000000815260040161037490611cf2565b60405180910390fd5b5f8054906101000a900473ffffffffffffffffffffffffffffffffffffffff1673ffffffffffffffffffffffffffffffffffffffff166108fc8290811502906040515f60405180830381858888f193505050501580156103df573d5f803e3d5ffd5b505f8054906101000a900473ffffffffffffffffffffffffffffffffffffffff1673ffffffffffffffffffffffffffffffffffffffff167f7fcf532c15f0a6db0bd6d0e038bea71d30d808c7d98cb3bf7268a95bf5081b6582604051610445919061164b565b60405180910390a250565b5f8054906101000a900473ffffffffffffffffffffffffffffffffffffffff1681565b5f47905090565b5f806060806060805f805f8911801561049557506001548911155b6104d4576040517f08c379a00000000000000000000000000000000000000000000000000000000081526004016104cb90611d5a565b60405180910390fd5b5f60035f8b81526020019081526020015f20604051806101000160405290815f8201548152602001600182015f9054906101000a900473ffffffffffffffffffffffffffffffffffffffff1673ffffffffffffffffffffffffffffffffffffffff1673ffffffffffffffffffffffffffffffffffffffff16815260200160028201805461056090611da5565b80601f016020809104026020016040519081016040528092919081815260200182805461058c90611da5565b80156105d75780601f106105ae576101008083540402835291602001916105d7565b820191905f5260205f20905b8154815290600101906020018083116105ba57829003601f168201915b505050505081526020016003820180546105f090611da5565b80601f016020809104026020016040519081016040528092919081815260200182805461061c90611da5565b80156106675780601f1061063e57610100808354040283529160200191610667565b820191905f5260205f20905b81548152906001019060200180831161064a57829003601f168201915b5050505050815260200160048201805461068090611da5565b80601f01602080910402602001604051908101604052809291908181526020018280546106ac90611da5565b80156106f75780601f106106ce576101008083540402835291602001916106f7565b820191905f5260205f20905b8154815290600101906020018083116106da57829003601f168201915b5050505050815260200160058201805461071090611da5565b80601f016020809104026020016040519081016040528092919081815260200182805461073c90611da5565b80156107875780601f1061075e57610100808354040283529160200191610787565b820191905f5260205f20905b81548152906001019060200180831161076a57829003601f168201915b5050505050815260200160068201548152602001600782015f9054906101000a900460ff1615151515815250509050805f015181602001518260400151836060015184608001518560a001518660c001518760e001519850985098509850985098509850985050919395975091939597565b5f8054906101000a900473ffffffffffffffffffffffffffffffffffffffff1673ffffffffffffffffffffffffffffffffffffffff163373ffffffffffffffffffffffffffffffffffffffff1614610886576040517f08c379a000000000000000000000000000000000000000000000000000000000815260040161087d90611c8a565b60405180910390fd5b5f73ffffffffffffffffffffffffffffffffffffffff168173ffffffffffffffffffffffffffffffffffffffff16036108f4576040517f08c379a00000000000000000000000000000000000000000000000000000000081526004016108eb90611e1f565b60405180910390fd5b805f806101000a81548173ffffffffffffffffffffffffffffffffffffffff021916908373ffffffffffffffffffffffffffffffffffffffff1602179055508073ffffffffffffffffffffffffffffffffffffffff167f3430ad8dbed7c32bf49006f0d79d2ab70785ea13ebd4ef7d1b87e487ef08928c60405160405180910390a250565b60025481565b60605f80600190505b60015481116109d95760035f8281526020019081526020015f206007015f9054906101000a900460ff16156109c65781806109c290611e3d565b9250505b80806109d190611e3d565b915050610988565b505f8167ffffffffffffffff8111156109f5576109f4611a0f565b5b604051908082528060200260200182016040528015610a2e57816020015b610a1b6114bc565b815260200190600190039081610a135790505b5090505f80600190505b6001548111610d865760035f8281526020019081526020015f206007015f9054906101000a900460ff1615610d735760035f8281526020019081526020015f20604051806101000160405290815f8201548152602001600182015f9054906101000a900473ffffffffffffffffffffffffffffffffffffffff1673ffffffffffffffffffffffffffffffffffffffff1673ffffffffffffffffffffffffffffffffffffffff168152602001600282018054610af290611da5565b80601f0160208091040260200160405190810160405280929190818152602001828054610b1e90611da5565b8015610b695780601f10610b4057610100808354040283529160200191610b69565b820191905f5260205f20905b815481529060010190602001808311610b4c57829003601f168201915b50505050508152602001600382018054610b8290611da5565b80601f0160208091040260200160405190810160405280929190818152602001828054610bae90611da5565b8015610bf95780601f10610bd057610100808354040283529160200191610bf9565b820191905f5260205f20905b815481529060010190602001808311610bdc57829003601f168201915b50505050508152602001600482018054610c1290611da5565b80601f0160208091040260200160405190810160405280929190818152602001828054610c3e90611da5565b8015610c895780601f10610c6057610100808354040283529160200191610c89565b820191905f5260205f20905b815481529060010190602001808311610c6c57829003601f168201915b50505050508152602001600582018054610ca290611da5565b80601f0160208091040260200160405190810160405280929190818152602001828054610cce90611da5565b8015610d195780601f10610cf057610100808354040283529160200191610d19565b820191905f5260205f20905b815481529060010190602001808311610cfc57829003601f168201915b5050505050815260200160068201548152602001600782015f9054906101000a900460ff161515151581525050838381518110610d5957610d58611e84565b5b60200260200101819052508180610d6f90611e3d565b9250505b8080610d7e90611e3d565b915050610a38565b5081935050505090565b60015481565b5f8111610dd8576040517f08c379a0000000000000000000000000000000000000000000000000000000008152600401610dcf90611efb565b60405180910390fd5b60015f815480929190610dea90611e3d565b919050555060405180610100016040528060015481526020013373ffffffffffffffffffffffffffffffffffffffff1681526020018681526020018581526020018481526020018381526020018281526020016001151581525060035f60015481526020019081526020015f205f820151815f01556020820151816001015f6101000a81548173ffffffffffffffffffffffffffffffffffffffff021916908373ffffffffffffffffffffffffffffffffffffffff1602179055506040820151816002019081610eba91906120b6565b506060820151816003019081610ed091906120b6565b506080820151816004019081610ee691906120b6565b5060a0820151816005019081610efc91906120b6565b5060c0820151816006015560e0820151816007015f6101000a81548160ff0219169083151502179055509050503373ffffffffffffffffffffffffffffffffffffffff166001547fcb4990052f95f6057496d19524f6c3163f50af9f33f2c15b092928e03414323e60405160405180910390a35050505050565b5f81118015610f8757506001548111155b610fc6576040517f08c379a0000000000000000000000000000000000000000000000000000000008152600401610fbd90611d5a565b60405180910390fd5b5f60035f8381526020019081526020015f209050806007015f9054906101000a900460ff1661102a576040517f08c379a0000000000000000000000000000000000000000000000000000000008152600401611021906121cf565b60405180910390fd5b8060060154341015611071576040517f08c379a000000000000000000000000000000000000000000000000000000000815260040161106890612237565b60405180910390fd5b806001015f9054906101000a900473ffffffffffffffffffffffffffffffffffffffff1673ffffffffffffffffffffffffffffffffffffffff163373ffffffffffffffffffffffffffffffffffffffff1603611102576040517f08c379a00000000000000000000000000000000000000000000000000000000081526004016110f99061229f565b60405180910390fd5b5f816001015f9054906101000a900473ffffffffffffffffffffffffffffffffffffffff1690508073ffffffffffffffffffffffffffffffffffffffff166108fc3490811502906040515f60405180830381858888f1935050505015801561116c573d5f803e3d5ffd5b5033826001015f6101000a81548173ffffffffffffffffffffffffffffffffffffffff021916908373ffffffffffffffffffffffffffffffffffffffff1602179055505f826007015f6101000a81548160ff0219169083151502179055503373ffffffffffffffffffffffffffffffffffffffff168173ffffffffffffffffffffffffffffffffffffffff16847f807451718126bb3ea1827b4f2dcd9babf574bca415f9f210235f670d7c6e203034604051611228919061164b565b60405180910390a4505050565b6003602052805f5260405f205f91509050805f015490806001015f9054906101000a900473ffffffffffffffffffffffffffffffffffffffff169080600201805461127f90611da5565b80601f01602080910402602001604051908101604052809291908181526020018280546112ab90611da5565b80156112f65780601f106112cd576101008083540402835291602001916112f6565b820191905f5260205f20905b8154815290600101906020018083116112d957829003601f168201915b50505050509080600301805461130b90611da5565b80601f016020809104026020016040519081016040528092919081815260200182805461133790611da5565b80156113825780601f1061135957610100808354040283529160200191611382565b820191905f5260205f20905b81548152906001019060200180831161136557829003601f168201915b50505050509080600401805461139790611da5565b80601f01602080910402602001604051908101604052809291908181526020018280546113c390611da5565b801561140e5780601f106113e55761010080835404028352916020019161140e565b820191905f5260205f20905b8154815290600101906020018083116113f157829003601f168201915b50505050509080600501805461142390611da5565b80601f016020809104026020016040519081016040528092919081815260200182805461144f90611da5565b801561149a5780601f106114715761010080835404028352916020019161149a565b820191905f5260205f20905b81548152906001019060200180831161147d57829003601f168201915b505050505090806006015490806007015f9054906101000a900460ff16905088565b6040518061010001604052805f81526020015f73ffffffffffffffffffffffffffffffffffffffff168152602001606081526020016060815260200160608152602001606081526020015f81526020015f151581525090565b5f819050919050565b7f4e487b71000000000000000000000000000000000000000000000000000000005f52601160045260245ffd5b5f61155582611515565b915061156083611515565b92508282019050808211156115785761157761151e565b5b92915050565b5f604051905090565b5f80fd5b5f80fd5b61159881611515565b81146115a2575f80fd5b50565b5f813590506115b38161158f565b92915050565b5f602082840312156115ce576115cd611587565b5b5f6115db848285016115a5565b91505092915050565b5f73ffffffffffffffffffffffffffffffffffffffff82169050919050565b5f61160d826115e4565b9050919050565b61161d81611603565b82525050565b5f6020820190506116365f830184611614565b92915050565b61164581611515565b82525050565b5f60208201905061165e5f83018461163c565b92915050565b5f81519050919050565b5f82825260208201905092915050565b5f5b8381101561169b578082015181840152602081019050611680565b5f8484015250505050565b5f601f19601f8301169050919050565b5f6116c082611664565b6116ca818561166e565b93506116da81856020860161167e565b6116e3816116a6565b840191505092915050565b5f8115159050919050565b611702816116ee565b82525050565b5f6101008201905061171c5f83018b61163c565b611729602083018a611614565b818103604083015261173b81896116b6565b9050818103606083015261174f81886116b6565b9050818103608083015261176381876116b6565b905081810360a083015261177781866116b6565b905061178660c083018561163c565b61179360e08301846116f9565b9998505050505050505050565b6117a981611603565b81146117b3575f80fd5b50565b5f813590506117c4816117a0565b92915050565b5f602082840312156117df576117de611587565b5b5f6117ec848285016117b6565b91505092915050565b5f81519050919050565b5f82825260208201905092915050565b5f819050602082019050919050565b61182781611515565b82525050565b61183681611603565b82525050565b5f82825260208201905092915050565b5f61185682611664565b611860818561183c565b935061187081856020860161167e565b611879816116a6565b840191505092915050565b61188d816116ee565b82525050565b5f61010083015f8301516118a95f86018261181e565b5060208301516118bc602086018261182d565b50604083015184820360408601526118d4828261184c565b915050606083015184820360608601526118ee828261184c565b91505060808301518482036080860152611908828261184c565b91505060a083015184820360a0860152611922828261184c565b91505060c083015161193760c086018261181e565b5060e083015161194a60e0860182611884565b508091505092915050565b5f6119608383611893565b905092915050565b5f602082019050919050565b5f61197e826117f5565b61198881856117ff565b93508360208202850161199a8561180f565b805f5b858110156119d557848403895281516119b68582611955565b94506119c183611968565b925060208a0199505060018101905061199d565b50829750879550505050505092915050565b5f6020820190508181035f8301526119ff8184611974565b905092915050565b5f80fd5b5f80fd5b7f4e487b71000000000000000000000000000000000000000000000000000000005f52604160045260245ffd5b611a45826116a6565b810181811067ffffffffffffffff82111715611a6457611a63611a0f565b5b80604052505050565b5f611a7661157e565b9050611a828282611a3c565b919050565b5f67ffffffffffffffff821115611aa157611aa0611a0f565b5b611aaa826116a6565b9050602081019050919050565b828183375f83830152505050565b5f611ad7611ad284611a87565b611a6d565b905082815260208101848484011115611af357611af2611a0b565b5b611afe848285611ab7565b509392505050565b5f82601f830112611b1a57611b19611a07565b5b8135611b2a848260208601611ac5565b91505092915050565b5f805f805f60a08688031215611b4c57611b4b611587565b5b5f86013567ffffffffffffffff811115611b6957611b6861158b565b5b611b7588828901611b06565b955050602086013567ffffffffffffffff811115611b9657611b9561158b565b5b611ba288828901611b06565b945050604086013567ffffffffffffffff811115611bc357611bc261158b565b5b611bcf88828901611b06565b935050606086013567ffffffffffffffff811115611bf057611bef61158b565b5b611bfc88828901611b06565b9250506080611c0d888289016115a5565b9150509295509295909350565b7f4f6e6c7920746865206c616e6420726567697374727920617574686f726974795f8201527f2063616e20706572666f726d207468697320616374696f6e0000000000000000602082015250565b5f611c7460388361166e565b9150611c7f82611c1a565b604082019050919050565b5f6020820190508181035f830152611ca181611c68565b9050919050565b7f4e6f7420656e6f7567682062616c616e636500000000000000000000000000005f82015250565b5f611cdc60128361166e565b9150611ce782611ca8565b602082019050919050565b5f6020820190508181035f830152611d0981611cd0565b9050919050565b7f496e76616c6964206c616e6420494400000000000000000000000000000000005f82015250565b5f611d44600f8361166e565b9150611d4f82611d10565b602082019050919050565b5f6020820190508181035f830152611d7181611d38565b9050919050565b7f4e487b71000000000000000000000000000000000000000000000000000000005f52602260045260245ffd5b5f6002820490506001821680611dbc57607f821691505b602082108103611dcf57611dce611d78565b5b50919050565b7f496e76616c6964206164647265737300000000000000000000000000000000005f82015250565b5f611e09600f8361166e565b9150611e1482611dd5565b602082019050919050565b5f6020820190508181035f830152611e3681611dfd565b9050919050565b5f611e4782611515565b91507fffffffffffffffffffffffffffffffffffffffffffffffffffffffffffffffff8203611e7957611e7861151e565b5b600182019050919050565b7f4e487b71000000000000000000000000000000000000000000000000000000005f52603260045260245ffd5b7f5072696365206d7573742062652067726561746572207468616e2030000000005f82015250565b5f611ee5601c8361166e565b9150611ef082611eb1565b602082019050919050565b5f6020820190508181035f830152611f1281611ed9565b9050919050565b5f819050815f5260205f209050919050565b5f6020601f8301049050919050565b5f82821b905092915050565b5f60088302611f757fffffffffffffffffffffffffffffffffffffffffffffffffffffffffffffffff82611f3a565b611f7f8683611f3a565b95508019841693508086168417925050509392505050565b5f819050919050565b5f611fba611fb5611fb084611515565b611f97565b611515565b9050919050565b5f819050919050565b611fd383611fa0565b611fe7611fdf82611fc1565b848454611f46565b825550505050565b5f90565b611ffb611fef565b612006818484611fca565b505050565b5b818110156120295761201e5f82611ff3565b60018101905061200c565b5050565b601f82111561206e5761203f81611f19565b61204884611f2b565b81016020851015612057578190505b61206b61206385611f2b565b83018261200b565b50505b505050565b5f82821c905092915050565b5f61208e5f1984600802612073565b1980831691505092915050565b5f6120a6838361207f565b9150826002028217905092915050565b6120bf82611664565b67ffffffffffffffff8111156120d8576120d7611a0f565b5b6120e28254611da5565b6120ed82828561202d565b5f60209050601f83116001811461211e575f841561210c578287015190505b612116858261209b565b86555061217d565b601f19841661212c86611f19565b5f5b828110156121535784890151825560018201915060208501945060208101905061212e565b86831015612170578489015161216c601f89168261207f565b8355505b6001600288020188555050505b505050505050565b7f4c616e64206e6f7420666f722073616c650000000000000000000000000000005f82015250565b5f6121b960118361166e565b91506121c482612185565b602082019050919050565b5f6020820190508181035f8301526121e6816121ad565b9050919050565b7f496e73756666696369656e74207061796d656e740000000000000000000000005f82015250565b5f61222160148361166e565b915061222c826121ed565b602082019050919050565b5f6020820190508181035f83015261224e81612215565b9050919050565b7f4f776e65722063616e6e6f7420627579207468656972206f776e206c616e64005f82015250565b5f612289601f8361166e565b915061229482612255565b602082019050919050565b5f6020820190508181035f8301526122b68161227d565b905091905056fea26469706673582212202a73ee0ca9dc6c3022dbfd78fcefeb4baf688310c827fc91f76aacf066a786d064736f6c63430008150033",
  "immutableReferences": {},
  "source": "// SPDX-License-Identifier: MIT\npragma solidity ^0.8.20;\n\ncontract LandRegistry {\n    address public landRegistryAuthority;\n    uint public landCounter = 0;\n    uint public contractBalance;\n\n    constructor() payable {\n        landRegistryAuthority = msg.sender;\n        contractBalance = msg.value;\n    }\n\n    modifier onlyAuthority() {\n        require(\n            msg.sender == landRegistryAuthority,\n            \"Only the land registry authority can perform this action\"\n        );\n        _;\n    }\n\n    struct Land {\n        uint id;\n        address owner;\n        string plotNumber;\n        string location;\n        string city;\n        string state;\n        uint price;\n        bool forSale;\n    }\n\n    mapping(uint => Land) public lands;\n\n    event LandRegistered(uint indexed id, address indexed owner);\n    event LandPurchased(\n        uint indexed id,\n        address indexed oldOwner,\n        address indexed newOwner,\n        uint price\n    );\n    event AuthorityChanged(address indexed newAuthority);\n    event Withdrawal(address indexed to, uint amount);\n\n    function setAuthority(address _newAuthority) public onlyAuthority {\n        require(_newAuthority != address(0), \"Invalid address\");\n        landRegistryAuthority = _newAuthority;\n        emit AuthorityChanged(_newAuthority);\n    }\n\n    function registerLand(\n        string memory _plotNumber,\n        string memory _location,\n        string memory _city,\n        string memory _state,\n        uint _price\n    ) public {\n        require(_price > 0, \"Price must be greater than 0\");\n        landCounter++;\n        lands[landCounter] = Land(\n            landCounter,\n            msg.sender,\n            _plotNumber,\n            _location,\n            _city,\n            _state,\n            _price,\n            true\n        );\n        emit LandRegistered(landCounter, msg.sender);\n    }\n\n    function getAvailableLands() public view returns (Land[] memory) {\n        uint availableCount = 0;\n        for (uint i = 1; i <= landCounter; i++) {\n            if (lands[i].forSale) availableCount++;\n        }\n\n        Land[] memory availableLands = new Land[](availableCount);\n        uint index = 0;\n        for (uint i = 1; i <= landCounter; i++) {\n            if (lands[i].forSale) {\n                availableLands[index] = lands[i];\n                index++;\n            }\n        }\n        return availableLands;\n    }\n\n    function buyLand(uint256 _id) public payable {\n        require(_id > 0 && _id <= landCounter, \"Invalid land ID\");\n\n        Land storage land = lands[_id];\n        require(land.forSale, \"Land not for sale\");\n        require(msg.value >= land.price, \"Insufficient payment\");\n        require(msg.sender != land.owner, \"Owner cannot buy their own land\");\n\n        address payable seller = payable(land.owner);\n        seller.transfer(msg.value);\n\n        land.owner = msg.sender;\n        land.forSale = false;\n\n        emit LandPurchased(_id, seller, msg.sender, msg.value);\n    }\n\n    function getLandById(\n        uint _id\n    )\n        public\n        view\n        returns (\n            uint,\n            address,\n            string memory,\n            string memory,\n            string memory,\n            string memory,\n            uint,\n            bool\n        )\n    {\n        require(_id > 0 && _id <= landCounter, \"Invalid land ID\");\n        Land memory land = lands[_id];\n        return (\n            land.id,\n            land.owner,\n            land.plotNumber,\n            land.location,\n            land.city,\n            land.state,\n            land.price,\n            land.forSale\n        );\n    }\n\n    function getContractBalance() public view returns (uint) {\n        return address(this).balance;\n    }\n\n    function withdraw(uint _amount) public onlyAuthority {\n        require(_amount <= address(this).balance, \"Not enough balance\");\n        payable(landRegistryAuthority).transfer(_amount);\n        emit Withdrawal(landRegistryAuthority, _amount);\n    }\n\n    receive() external payable {\n        contractBalance += msg.value;\n    }\n}\n",
  "sourcePath": "/home/vedant04/Desktop/blockchain/land-registry-blockchain/contracts/LandRegistry.sol",
  "compiler": {
    "name": "solc",
    "version": "0.8.21+commit.d9974bed.Emscripten.clang"
  },
  "schemaVersion": "3.4.16",
  "updatedAt": "2025-04-20T18:01:34.348Z",
  "devdoc": {
    "kind": "dev",
    "methods": {},
    "version": 1
  },
  "userdoc": {
    "kind": "user",
    "methods": {},
    "version": 1
  }
}