{
  "contractName": "LandRegistry",
  "abi": [
    {
      "anonymous": false,
      "inputs": [
        {
          "indexed": false,
          "internalType": "uint256",
          "name": "id",
          "type": "uint256"
        },
        {
          "indexed": true,
          "internalType": "address",
          "name": "owner",
          "type": "address"
        },
        {
          "indexed": false,
          "internalType": "string",
          "name": "location",
          "type": "string"
        },
        {
          "indexed": false,
          "internalType": "uint256",
          "name": "price",
          "type": "uint256"
        }
      ],
      "name": "LandListed",
      "type": "event"
    },
    {
      "anonymous": false,
      "inputs": [
        {
          "indexed": false,
          "internalType": "uint256",
          "name": "id",
          "type": "uint256"
        },
        {
          "indexed": true,
          "internalType": "address",
          "name": "buyer",
          "type": "address"
        },
        {
          "indexed": true,
          "internalType": "address",
          "name": "seller",
          "type": "address"
        },
        {
          "indexed": false,
          "internalType": "uint256",
          "name": "price",
          "type": "uint256"
        }
      ],
      "name": "LandSold",
      "type": "event"
    },
    {
      "inputs": [
        {
          "internalType": "address",
          "name": "_addr",
          "type": "address"
        }
      ],
      "name": "assignBuyer",
      "outputs": [],
      "stateMutability": "nonpayable",
      "type": "function"
    },
    {
      "inputs": [
        {
          "internalType": "address",
          "name": "_addr",
          "type": "address"
        }
      ],
      "name": "assignSeller",
      "outputs": [],
      "stateMutability": "nonpayable",
      "type": "function"
    },
    {
      "inputs": [
        {
          "internalType": "address",
          "name": "",
          "type": "address"
        }
      ],
      "name": "buyers",
      "outputs": [
        {
          "internalType": "bool",
          "name": "",
          "type": "bool"
        }
      ],
      "stateMutability": "view",
      "type": "function",
      "constant": true
    },
    {
      "inputs": [
        {
          "internalType": "address",
          "name": "",
          "type": "address"
        }
      ],
      "name": "government",
      "outputs": [
        {
          "internalType": "bool",
          "name": "",
          "type": "bool"
        }
      ],
      "stateMutability": "view",
      "type": "function",
      "constant": true
    },
    {
      "inputs": [
        {
          "internalType": "address",
          "name": "_addr",
          "type": "address"
        }
      ],
      "name": "isBuyer",
      "outputs": [
        {
          "internalType": "bool",
          "name": "",
          "type": "bool"
        }
      ],
      "stateMutability": "view",
      "type": "function",
      "constant": true
    },
    {
      "inputs": [
        {
          "internalType": "address",
          "name": "_addr",
          "type": "address"
        }
      ],
      "name": "isSeller",
      "outputs": [
        {
          "internalType": "bool",
          "name": "",
          "type": "bool"
        }
      ],
      "stateMutability": "view",
      "type": "function",
      "constant": true
    },
    {
      "inputs": [],
      "name": "landCount",
      "outputs": [
        {
          "internalType": "uint256",
          "name": "",
          "type": "uint256"
        }
      ],
      "stateMutability": "view",
      "type": "function",
      "constant": true
    },
    {
      "inputs": [
        {
          "internalType": "uint256",
          "name": "",
          "type": "uint256"
        }
      ],
      "name": "lands",
      "outputs": [
        {
          "internalType": "uint256",
          "name": "id",
          "type": "uint256"
        },
        {
          "internalType": "address",
          "name": "owner",
          "type": "address"
        },
        {
          "internalType": "string",
          "name": "location",
          "type": "string"
        },
        {
          "internalType": "uint256",
          "name": "price",
          "type": "uint256"
        },
        {
          "internalType": "bool",
          "name": "forSale",
          "type": "bool"
        }
      ],
      "stateMutability": "view",
      "type": "function",
      "constant": true
    },
    {
      "inputs": [
        {
          "internalType": "address",
          "name": "",
          "type": "address"
        }
      ],
      "name": "sellers",
      "outputs": [
        {
          "internalType": "bool",
          "name": "",
          "type": "bool"
        }
      ],
      "stateMutability": "view",
      "type": "function",
      "constant": true
    },
    {
      "inputs": [
        {
          "internalType": "string",
          "name": "_location",
          "type": "string"
        },
        {
          "internalType": "uint256",
          "name": "_price",
          "type": "uint256"
        }
      ],
      "name": "listLand",
      "outputs": [],
      "stateMutability": "nonpayable",
      "type": "function"
    },
    {
      "inputs": [
        {
          "internalType": "uint256",
          "name": "_landId",
          "type": "uint256"
        }
      ],
      "name": "buyLand",
      "outputs": [],
      "stateMutability": "payable",
      "type": "function",
      "payable": true
    },
    {
      "inputs": [
        {
          "internalType": "uint256",
          "name": "_id",
          "type": "uint256"
        }
      ],
      "name": "getLand",
      "outputs": [
        {
          "components": [
            {
              "internalType": "uint256",
              "name": "id",
              "type": "uint256"
            },
            {
              "internalType": "address",
              "name": "owner",
              "type": "address"
            },
            {
              "internalType": "string",
              "name": "location",
              "type": "string"
            },
            {
              "internalType": "uint256",
              "name": "price",
              "type": "uint256"
            },
            {
              "internalType": "bool",
              "name": "forSale",
              "type": "bool"
            }
          ],
          "internalType": "struct LandRegistry.Land",
          "name": "",
          "type": "tuple"
        }
      ],
      "stateMutability": "view",
      "type": "function",
      "constant": true
    }
  ],
  "bytecode": "0x608060405234801561000f575f80fd5b5060015f803373ffffffffffffffffffffffffffffffffffffffff1673ffffffffffffffffffffffffffffffffffffffff1681526020019081526020015f205f6101000a81548160ff021916908315150217905550611722806100715f395ff3fe6080604052600436106100a6575f3560e01c8063bc7ff27411610063578063bc7ff274146101ea578063ced3955814610212578063d7bce6581461022e578063e261f1e514610258578063ee95feaf14610298578063f02dd53f146102d4576100a6565b80630dacad2e146100aa5780632a55feec146100d257806349bf5d6b1461010e5780635aafed781461014a5780636d47ab721461017257806397a993aa146101ae575b5f80fd5b3480156100b5575f80fd5b506100d060048036038101906100cb9190610ce1565b610310565b005b3480156100dd575f80fd5b506100f860048036038101906100f39190610ce1565b6103ef565b6040516101059190610d26565b60405180910390f35b348015610119575f80fd5b50610134600480360381019061012f9190610ce1565b610441565b6040516101419190610d26565b60405180910390f35b348015610155575f80fd5b50610170600480360381019061016b9190610eae565b61045d565b005b34801561017d575f80fd5b5061019860048036038101906101939190610ce1565b61063a565b6040516101a59190610d26565b60405180910390f35b3480156101b9575f80fd5b506101d460048036038101906101cf9190610ce1565b610657565b6040516101e19190610d26565b60405180910390f35b3480156101f5575f80fd5b50610210600480360381019061020b9190610ce1565b610674565b005b61022c60048036038101906102279190610f08565b610754565b005b348015610239575f80fd5b506102426109bb565b60405161024f9190610f42565b60405180910390f35b348015610263575f80fd5b5061027e60048036038101906102799190610f08565b6109c1565b60405161028f959493929190610fe4565b60405180910390f35b3480156102a3575f80fd5b506102be60048036038101906102b99190610ce1565b610aa4565b6040516102cb9190610d26565b60405180910390f35b3480156102df575f80fd5b506102fa60048036038101906102f59190610f08565b610af6565b6040516103079190611124565b60405180910390f35b5f803373ffffffffffffffffffffffffffffffffffffffff1673ffffffffffffffffffffffffffffffffffffffff1681526020019081526020015f205f9054906101000a900460ff16610398576040517f08c379a000000000000000000000000000000000000000000000000000000000815260040161038f9061118e565b60405180910390fd5b6001805f8373ffffffffffffffffffffffffffffffffffffffff1673ffffffffffffffffffffffffffffffffffffffff1681526020019081526020015f205f6101000a81548160ff02191690831515021790555050565b5f60015f8373ffffffffffffffffffffffffffffffffffffffff1673ffffffffffffffffffffffffffffffffffffffff1681526020019081526020015f205f9054906101000a900460ff169050919050565b5f602052805f5260405f205f915054906101000a900460ff1681565b60025f3373ffffffffffffffffffffffffffffffffffffffff1673ffffffffffffffffffffffffffffffffffffffff1681526020019081526020015f205f9054906101000a900460ff166104e6576040517f08c379a00000000000000000000000000000000000000000000000000000000081526004016104dd906111f6565b60405180910390fd5b60035f8154809291906104f890611241565b91905055506040518060a0016040528060035481526020013373ffffffffffffffffffffffffffffffffffffffff1681526020018381526020018281526020016001151581525060045f60035481526020019081526020015f205f820151815f01556020820151816001015f6101000a81548173ffffffffffffffffffffffffffffffffffffffff021916908373ffffffffffffffffffffffffffffffffffffffff16021790555060408201518160020190816105b59190611482565b50606082015181600301556080820151816004015f6101000a81548160ff0219169083151502179055509050503373ffffffffffffffffffffffffffffffffffffffff167fcfcaf56e00661b746b38bdc99ad56efb066a6759b65257119d2c6ecd492ee8bb600354848460405161062e93929190611551565b60405180910390a25050565b6002602052805f5260405f205f915054906101000a900460ff1681565b6001602052805f5260405f205f915054906101000a900460ff1681565b5f803373ffffffffffffffffffffffffffffffffffffffff1673ffffffffffffffffffffffffffffffffffffffff1681526020019081526020015f205f9054906101000a900460ff166106fc576040517f08c379a00000000000000000000000000000000000000000000000000000000081526004016106f39061118e565b60405180910390fd5b600160025f8373ffffffffffffffffffffffffffffffffffffffff1673ffffffffffffffffffffffffffffffffffffffff1681526020019081526020015f205f6101000a81548160ff02191690831515021790555050565b60015f3373ffffffffffffffffffffffffffffffffffffffff1673ffffffffffffffffffffffffffffffffffffffff1681526020019081526020015f205f9054906101000a900460ff166107dd576040517f08c379a00000000000000000000000000000000000000000000000000000000081526004016107d4906115d7565b60405180910390fd5b5f60045f8381526020019081526020015f209050806004015f9054906101000a900460ff16610841576040517f08c379a00000000000000000000000000000000000000000000000000000000081526004016108389061163f565b60405180910390fd5b80600301543414610887576040517f08c379a000000000000000000000000000000000000000000000000000000000815260040161087e906116a7565b60405180910390fd5b5f816001015f9054906101000a900473ffffffffffffffffffffffffffffffffffffffff16905033826001015f6101000a81548173ffffffffffffffffffffffffffffffffffffffff021916908373ffffffffffffffffffffffffffffffffffffffff1602179055505f826004015f6101000a81548160ff0219169083151502179055508073ffffffffffffffffffffffffffffffffffffffff166108fc3490811502906040515f60405180830381858888f1935050505015801561094e573d5f803e3d5ffd5b508073ffffffffffffffffffffffffffffffffffffffff163373ffffffffffffffffffffffffffffffffffffffff167f2dcc677025acfeac3c6b0dedf2599864d3878a9041058fa9d55aa4e47409120a85346040516109ae9291906116c5565b60405180910390a3505050565b60035481565b6004602052805f5260405f205f91509050805f015490806001015f9054906101000a900473ffffffffffffffffffffffffffffffffffffffff1690806002018054610a0b906112b5565b80601f0160208091040260200160405190810160405280929190818152602001828054610a37906112b5565b8015610a825780601f10610a5957610100808354040283529160200191610a82565b820191905f5260205f20905b815481529060010190602001808311610a6557829003601f168201915b505050505090806003015490806004015f9054906101000a900460ff16905085565b5f60025f8373ffffffffffffffffffffffffffffffffffffffff1673ffffffffffffffffffffffffffffffffffffffff1681526020019081526020015f205f9054906101000a900460ff169050919050565b610afe610c33565b60045f8381526020019081526020015f206040518060a00160405290815f8201548152602001600182015f9054906101000a900473ffffffffffffffffffffffffffffffffffffffff1673ffffffffffffffffffffffffffffffffffffffff1673ffffffffffffffffffffffffffffffffffffffff168152602001600282018054610b88906112b5565b80601f0160208091040260200160405190810160405280929190818152602001828054610bb4906112b5565b8015610bff5780601f10610bd657610100808354040283529160200191610bff565b820191905f5260205f20905b815481529060010190602001808311610be257829003601f168201915b5050505050815260200160038201548152602001600482015f9054906101000a900460ff1615151515815250509050919050565b6040518060a001604052805f81526020015f73ffffffffffffffffffffffffffffffffffffffff168152602001606081526020015f81526020015f151581525090565b5f604051905090565b5f80fd5b5f80fd5b5f73ffffffffffffffffffffffffffffffffffffffff82169050919050565b5f610cb082610c87565b9050919050565b610cc081610ca6565b8114610cca575f80fd5b50565b5f81359050610cdb81610cb7565b92915050565b5f60208284031215610cf657610cf5610c7f565b5b5f610d0384828501610ccd565b91505092915050565b5f8115159050919050565b610d2081610d0c565b82525050565b5f602082019050610d395f830184610d17565b92915050565b5f80fd5b5f80fd5b5f601f19601f8301169050919050565b7f4e487b71000000000000000000000000000000000000000000000000000000005f52604160045260245ffd5b610d8d82610d47565b810181811067ffffffffffffffff82111715610dac57610dab610d57565b5b80604052505050565b5f610dbe610c76565b9050610dca8282610d84565b919050565b5f67ffffffffffffffff821115610de957610de8610d57565b5b610df282610d47565b9050602081019050919050565b828183375f83830152505050565b5f610e1f610e1a84610dcf565b610db5565b905082815260208101848484011115610e3b57610e3a610d43565b5b610e46848285610dff565b509392505050565b5f82601f830112610e6257610e61610d3f565b5b8135610e72848260208601610e0d565b91505092915050565b5f819050919050565b610e8d81610e7b565b8114610e97575f80fd5b50565b5f81359050610ea881610e84565b92915050565b5f8060408385031215610ec457610ec3610c7f565b5b5f83013567ffffffffffffffff811115610ee157610ee0610c83565b5b610eed85828601610e4e565b9250506020610efe85828601610e9a565b9150509250929050565b5f60208284031215610f1d57610f1c610c7f565b5b5f610f2a84828501610e9a565b91505092915050565b610f3c81610e7b565b82525050565b5f602082019050610f555f830184610f33565b92915050565b610f6481610ca6565b82525050565b5f81519050919050565b5f82825260208201905092915050565b5f5b83811015610fa1578082015181840152602081019050610f86565b5f8484015250505050565b5f610fb682610f6a565b610fc08185610f74565b9350610fd0818560208601610f84565b610fd981610d47565b840191505092915050565b5f60a082019050610ff75f830188610f33565b6110046020830187610f5b565b81810360408301526110168186610fac565b90506110256060830185610f33565b6110326080830184610d17565b9695505050505050565b61104581610e7b565b82525050565b61105481610ca6565b82525050565b5f82825260208201905092915050565b5f61107482610f6a565b61107e818561105a565b935061108e818560208601610f84565b61109781610d47565b840191505092915050565b6110ab81610d0c565b82525050565b5f60a083015f8301516110c65f86018261103c565b5060208301516110d9602086018261104b565b50604083015184820360408601526110f1828261106a565b9150506060830151611106606086018261103c565b50608083015161111960808601826110a2565b508091505092915050565b5f6020820190508181035f83015261113c81846110b1565b905092915050565b7f4e6f7420676f7665726e6d656e740000000000000000000000000000000000005f82015250565b5f611178600e83610f74565b915061118382611144565b602082019050919050565b5f6020820190508181035f8301526111a58161116c565b9050919050565b7f4e6f742073656c6c6572000000000000000000000000000000000000000000005f82015250565b5f6111e0600a83610f74565b91506111eb826111ac565b602082019050919050565b5f6020820190508181035f83015261120d816111d4565b9050919050565b7f4e487b71000000000000000000000000000000000000000000000000000000005f52601160045260245ffd5b5f61124b82610e7b565b91507fffffffffffffffffffffffffffffffffffffffffffffffffffffffffffffffff820361127d5761127c611214565b5b600182019050919050565b7f4e487b71000000000000000000000000000000000000000000000000000000005f52602260045260245ffd5b5f60028204905060018216806112cc57607f821691505b6020821081036112df576112de611288565b5b50919050565b5f819050815f5260205f209050919050565b5f6020601f8301049050919050565b5f82821b905092915050565b5f600883026113417fffffffffffffffffffffffffffffffffffffffffffffffffffffffffffffffff82611306565b61134b8683611306565b95508019841693508086168417925050509392505050565b5f819050919050565b5f61138661138161137c84610e7b565b611363565b610e7b565b9050919050565b5f819050919050565b61139f8361136c565b6113b36113ab8261138d565b848454611312565b825550505050565b5f90565b6113c76113bb565b6113d2818484611396565b505050565b5b818110156113f5576113ea5f826113bf565b6001810190506113d8565b5050565b601f82111561143a5761140b816112e5565b611414846112f7565b81016020851015611423578190505b61143761142f856112f7565b8301826113d7565b50505b505050565b5f82821c905092915050565b5f61145a5f198460080261143f565b1980831691505092915050565b5f611472838361144b565b9150826002028217905092915050565b61148b82610f6a565b67ffffffffffffffff8111156114a4576114a3610d57565b5b6114ae82546112b5565b6114b98282856113f9565b5f60209050601f8311600181146114ea575f84156114d8578287015190505b6114e28582611467565b865550611549565b601f1984166114f8866112e5565b5f5b8281101561151f578489015182556001820191506020850194506020810190506114fa565b8683101561153c5784890151611538601f89168261144b565b8355505b6001600288020188555050505b505050505050565b5f6060820190506115645f830186610f33565b81810360208301526115768185610fac565b90506115856040830184610f33565b949350505050565b7f4e6f7420627579657200000000000000000000000000000000000000000000005f82015250565b5f6115c1600983610f74565b91506115cc8261158d565b602082019050919050565b5f6020820190508181035f8301526115ee816115b5565b9050919050565b7f4e6f7420666f722073616c6500000000000000000000000000000000000000005f82015250565b5f611629600c83610f74565b9150611634826115f5565b602082019050919050565b5f6020820190508181035f8301526116568161161d565b9050919050565b7f496e636f727265637420707269636500000000000000000000000000000000005f82015250565b5f611691600f83610f74565b915061169c8261165d565b602082019050919050565b5f6020820190508181035f8301526116be81611685565b9050919050565b5f6040820190506116d85f830185610f33565b6116e56020830184610f33565b939250505056fea26469706673582212207aa62b952e6dab888f282608004c777278dcb96bd2c0f4965c435e1998cc770b64736f6c63430008150033",
  "immutableReferences": {},
  "source": "// SPDX-License-Identifier: MIT\npragma solidity ^0.8.21;\n\nimport \"./Stakeholders.sol\";\nimport \"./ProofOfAuthority.sol\";\n\ncontract LandRegistry is Stakeholders {\n    struct Land {\n        uint id;\n        address owner;\n        string location;\n        uint price;\n        bool forSale;\n    }\n\n    uint public landCount;\n    mapping(uint => Land) public lands;\n\n    event LandListed(uint id, address indexed owner, string location, uint price);\n    event LandSold(uint id, address indexed buyer, address indexed seller, uint price);\n\n    modifier onlyOwner(uint _landId) {\n        require(lands[_landId].owner == msg.sender, \"Not land owner\");\n        _;\n    }\n\n    function listLand(string memory _location, uint _price) external onlySeller {\n        landCount++;\n        lands[landCount] = Land(landCount, msg.sender, _location, _price, true);\n        emit LandListed(landCount, msg.sender, _location, _price);\n    }\n\n    function buyLand(uint _landId) external payable onlyBuyer {\n        Land storage land = lands[_landId];\n        require(land.forSale, \"Not for sale\");\n        require(msg.value == land.price, \"Incorrect price\");\n\n        address payable seller = payable(land.owner);\n        land.owner = msg.sender;\n        land.forSale = false;\n\n        seller.transfer(msg.value);\n        emit LandSold(_landId, msg.sender, seller, msg.value);\n    }\n\n    function getLand(uint _id) external view returns (Land memory) {\n        return lands[_id];\n    }\n}\n",
  "sourcePath": "/home/vedant04/Desktop/blockchain/land-registry-blockchain/contracts/LandRegistry.sol",
  "compiler": {
    "name": "solc",
    "version": "0.8.21+commit.d9974bed.Emscripten.clang"
  },
  "schemaVersion": "3.4.16",
  "updatedAt": "2025-04-19T10:14:45.015Z",
  "networkType": "ethereum",
  "devdoc": {
    "kind": "dev",
    "methods": {},
    "version": 1
  },
  "userdoc": {
    "kind": "user",
    "methods": {},
    "version": 1
  }
}