{
  "contractName": "LandRegistry",
  "abi": [
    {
      "inputs": [],
      "stateMutability": "payable",
      "type": "constructor",
      "payable": true
    },
    {
      "anonymous": false,
      "inputs": [
        {
          "indexed": true,
          "internalType": "address",
          "name": "newAuthority",
          "type": "address"
        }
      ],
      "name": "AuthorityChanged",
      "type": "event"
    },
    {
      "anonymous": false,
      "inputs": [
        {
          "indexed": true,
          "internalType": "uint256",
          "name": "id",
          "type": "uint256"
        },
        {
          "indexed": true,
          "internalType": "address",
          "name": "oldOwner",
          "type": "address"
        },
        {
          "indexed": true,
          "internalType": "address",
          "name": "newOwner",
          "type": "address"
        },
        {
          "indexed": false,
          "internalType": "uint256",
          "name": "price",
          "type": "uint256"
        }
      ],
      "name": "LandPurchased",
      "type": "event"
    },
    {
      "anonymous": false,
      "inputs": [
        {
          "indexed": true,
          "internalType": "uint256",
          "name": "id",
          "type": "uint256"
        },
        {
          "indexed": true,
          "internalType": "address",
          "name": "owner",
          "type": "address"
        }
      ],
      "name": "LandRegistered",
      "type": "event"
    },
    {
      "anonymous": false,
      "inputs": [
        {
          "indexed": true,
          "internalType": "address",
          "name": "to",
          "type": "address"
        },
        {
          "indexed": false,
          "internalType": "uint256",
          "name": "amount",
          "type": "uint256"
        }
      ],
      "name": "Withdrawal",
      "type": "event"
    },
    {
      "inputs": [],
      "name": "contractBalance",
      "outputs": [
        {
          "internalType": "uint256",
          "name": "",
          "type": "uint256"
        }
      ],
      "stateMutability": "view",
      "type": "function",
      "constant": true
    },
    {
      "inputs": [],
      "name": "landCounter",
      "outputs": [
        {
          "internalType": "uint256",
          "name": "",
          "type": "uint256"
        }
      ],
      "stateMutability": "view",
      "type": "function",
      "constant": true
    },
    {
      "inputs": [],
      "name": "landRegistryAuthority",
      "outputs": [
        {
          "internalType": "address",
          "name": "",
          "type": "address"
        }
      ],
      "stateMutability": "view",
      "type": "function",
      "constant": true
    },
    {
      "inputs": [
        {
          "internalType": "uint256",
          "name": "",
          "type": "uint256"
        }
      ],
      "name": "lands",
      "outputs": [
        {
          "internalType": "uint256",
          "name": "id",
          "type": "uint256"
        },
        {
          "internalType": "address",
          "name": "owner",
          "type": "address"
        },
        {
          "internalType": "string",
          "name": "location",
          "type": "string"
        },
        {
          "internalType": "uint256",
          "name": "price",
          "type": "uint256"
        },
        {
          "internalType": "bool",
          "name": "forSale",
          "type": "bool"
        }
      ],
      "stateMutability": "view",
      "type": "function",
      "constant": true
    },
    {
      "stateMutability": "payable",
      "type": "receive",
      "payable": true
    },
    {
      "inputs": [
        {
          "internalType": "address",
          "name": "_newAuthority",
          "type": "address"
        }
      ],
      "name": "setAuthority",
      "outputs": [],
      "stateMutability": "nonpayable",
      "type": "function"
    },
    {
      "inputs": [
        {
          "internalType": "string",
          "name": "_location",
          "type": "string"
        },
        {
          "internalType": "uint256",
          "name": "_price",
          "type": "uint256"
        }
      ],
      "name": "registerLand",
      "outputs": [],
      "stateMutability": "nonpayable",
      "type": "function"
    },
    {
      "inputs": [],
      "name": "getAvailableLands",
      "outputs": [
        {
          "components": [
            {
              "internalType": "uint256",
              "name": "id",
              "type": "uint256"
            },
            {
              "internalType": "address",
              "name": "owner",
              "type": "address"
            },
            {
              "internalType": "string",
              "name": "location",
              "type": "string"
            },
            {
              "internalType": "uint256",
              "name": "price",
              "type": "uint256"
            },
            {
              "internalType": "bool",
              "name": "forSale",
              "type": "bool"
            }
          ],
          "internalType": "struct LandRegistry.Land[]",
          "name": "",
          "type": "tuple[]"
        }
      ],
      "stateMutability": "view",
      "type": "function",
      "constant": true
    },
    {
      "inputs": [
        {
          "internalType": "uint256",
          "name": "_id",
          "type": "uint256"
        }
      ],
      "name": "buyLand",
      "outputs": [],
      "stateMutability": "payable",
      "type": "function",
      "payable": true
    },
    {
      "inputs": [
        {
          "internalType": "uint256",
          "name": "_id",
          "type": "uint256"
        }
      ],
      "name": "getLandById",
      "outputs": [
        {
          "internalType": "uint256",
          "name": "",
          "type": "uint256"
        },
        {
          "internalType": "address",
          "name": "",
          "type": "address"
        },
        {
          "internalType": "string",
          "name": "",
          "type": "string"
        },
        {
          "internalType": "uint256",
          "name": "",
          "type": "uint256"
        },
        {
          "internalType": "bool",
          "name": "",
          "type": "bool"
        }
      ],
      "stateMutability": "view",
      "type": "function",
      "constant": true
    },
    {
      "inputs": [],
      "name": "getContractBalance",
      "outputs": [
        {
          "internalType": "uint256",
          "name": "",
          "type": "uint256"
        }
      ],
      "stateMutability": "view",
      "type": "function",
      "constant": true
    },
    {
      "inputs": [
        {
          "internalType": "uint256",
          "name": "_amount",
          "type": "uint256"
        }
      ],
      "name": "withdraw",
      "outputs": [],
      "stateMutability": "nonpayable",
      "type": "function"
    }
  ],
  "bytecode": "0x60806040525f600155335f806101000a81548173ffffffffffffffffffffffffffffffffffffffff021916908373ffffffffffffffffffffffffffffffffffffffff16021790555034600281905550611b3a8061005b5f395ff3fe60806040526004361061009f575f3560e01c80638b7afe2e116100635780638b7afe2e146101a55780638d61a156146101cf5780639e29ce18146101f9578063ce924ed914610223578063ced395581461024b578063e261f1e514610267576100bd565b80632e1a7d4d146100c15780636b7aa615146100e95780636f9fb98a14610113578063727c04c81461013d5780637a9e5e4b1461017d576100bd565b366100bd573460025f8282546100b59190610f16565b925050819055005b5f80fd5b3480156100cc575f80fd5b506100e760048036038101906100e29190610f84565b6102a7565b005b3480156100f4575f80fd5b506100fd61044a565b60405161010a9190610fee565b60405180910390f35b34801561011e575f80fd5b5061012761046d565b6040516101349190611016565b60405180910390f35b348015610148575f80fd5b50610163600480360381019061015e9190610f84565b610474565b6040516101749594939291906110d3565b60405180910390f35b348015610188575f80fd5b506101a3600480360381019061019e9190611155565b6105d7565b005b3480156101b0575f80fd5b506101b9610757565b6040516101c69190611016565b60405180910390f35b3480156101da575f80fd5b506101e361075d565b6040516101f09190611323565b60405180910390f35b348015610204575f80fd5b5061020d6109bd565b60405161021a9190611016565b60405180910390f35b34801561022e575f80fd5b506102496004803603810190610244919061146f565b6109c3565b005b61026560048036038101906102609190610f84565b610b4b565b005b348015610272575f80fd5b5061028d60048036038101906102889190610f84565b610dba565b60405161029e9594939291906110d3565b60405180910390f35b5f8054906101000a900473ffffffffffffffffffffffffffffffffffffffff1673ffffffffffffffffffffffffffffffffffffffff163373ffffffffffffffffffffffffffffffffffffffff1614610334576040517f08c379a000000000000000000000000000000000000000000000000000000000815260040161032b90611539565b60405180910390fd5b47811115610377576040517f08c379a000000000000000000000000000000000000000000000000000000000815260040161036e906115a1565b60405180910390fd5b5f8054906101000a900473ffffffffffffffffffffffffffffffffffffffff1673ffffffffffffffffffffffffffffffffffffffff166108fc8290811502906040515f60405180830381858888f193505050501580156103d9573d5f803e3d5ffd5b505f8054906101000a900473ffffffffffffffffffffffffffffffffffffffff1673ffffffffffffffffffffffffffffffffffffffff167f7fcf532c15f0a6db0bd6d0e038bea71d30d808c7d98cb3bf7268a95bf5081b658260405161043f9190611016565b60405180910390a250565b5f8054906101000a900473ffffffffffffffffffffffffffffffffffffffff1681565b5f47905090565b5f8060605f805f60035f8881526020019081526020015f206040518060a00160405290815f8201548152602001600182015f9054906101000a900473ffffffffffffffffffffffffffffffffffffffff1673ffffffffffffffffffffffffffffffffffffffff1673ffffffffffffffffffffffffffffffffffffffff168152602001600282018054610505906115ec565b80601f0160208091040260200160405190810160405280929190818152602001828054610531906115ec565b801561057c5780601f106105535761010080835404028352916020019161057c565b820191905f5260205f20905b81548152906001019060200180831161055f57829003601f168201915b5050505050815260200160038201548152602001600482015f9054906101000a900460ff1615151515815250509050805f01518160200151826040015183606001518460800151955095509550955095505091939590929450565b5f8054906101000a900473ffffffffffffffffffffffffffffffffffffffff1673ffffffffffffffffffffffffffffffffffffffff163373ffffffffffffffffffffffffffffffffffffffff1614610664576040517f08c379a000000000000000000000000000000000000000000000000000000000815260040161065b90611539565b60405180910390fd5b5f73ffffffffffffffffffffffffffffffffffffffff168173ffffffffffffffffffffffffffffffffffffffff16036106d2576040517f08c379a00000000000000000000000000000000000000000000000000000000081526004016106c990611666565b60405180910390fd5b805f806101000a81548173ffffffffffffffffffffffffffffffffffffffff021916908373ffffffffffffffffffffffffffffffffffffffff1602179055508073ffffffffffffffffffffffffffffffffffffffff167f3430ad8dbed7c32bf49006f0d79d2ab70785ea13ebd4ef7d1b87e487ef08928c60405160405180910390a250565b60025481565b60605f80600190505b60015481116107b75760035f8281526020019081526020015f206004015f9054906101000a900460ff16156107a45781806107a090611684565b9250505b80806107af90611684565b915050610766565b505f8167ffffffffffffffff8111156107d3576107d261134b565b5b60405190808252806020026020018201604052801561080c57816020015b6107f9610e9d565b8152602001906001900390816107f15790505b5090505f80600190505b60015481116109b35760035f8281526020019081526020015f206004015f9054906101000a900460ff16156109a05760035f8281526020019081526020015f206040518060a00160405290815f8201548152602001600182015f9054906101000a900473ffffffffffffffffffffffffffffffffffffffff1673ffffffffffffffffffffffffffffffffffffffff1673ffffffffffffffffffffffffffffffffffffffff1681526020016002820180546108cf906115ec565b80601f01602080910402602001604051908101604052809291908181526020018280546108fb906115ec565b80156109465780601f1061091d57610100808354040283529160200191610946565b820191905f5260205f20905b81548152906001019060200180831161092957829003601f168201915b5050505050815260200160038201548152602001600482015f9054906101000a900460ff161515151581525050838381518110610986576109856116cb565b5b6020026020010181905250818061099c90611684565b9250505b80806109ab90611684565b915050610816565b5081935050505090565b60015481565b5f8111610a05576040517f08c379a00000000000000000000000000000000000000000000000000000000081526004016109fc90611742565b60405180910390fd5b60015f815480929190610a1790611684565b91905055506040518060a0016040528060015481526020013373ffffffffffffffffffffffffffffffffffffffff1681526020018381526020018281526020016001151581525060035f60015481526020019081526020015f205f820151815f01556020820151816001015f6101000a81548173ffffffffffffffffffffffffffffffffffffffff021916908373ffffffffffffffffffffffffffffffffffffffff1602179055506040820151816002019081610ad491906118fd565b50606082015181600301556080820151816004015f6101000a81548160ff0219169083151502179055509050503373ffffffffffffffffffffffffffffffffffffffff166001547fcb4990052f95f6057496d19524f6c3163f50af9f33f2c15b092928e03414323e60405160405180910390a35050565b5f60035f8381526020019081526020015f209050806004015f9054906101000a900460ff16610baf576040517f08c379a0000000000000000000000000000000000000000000000000000000008152600401610ba690611a16565b60405180910390fd5b8060030154341015610bf6576040517f08c379a0000000000000000000000000000000000000000000000000000000008152600401610bed90611a7e565b60405180910390fd5b806001015f9054906101000a900473ffffffffffffffffffffffffffffffffffffffff1673ffffffffffffffffffffffffffffffffffffffff163373ffffffffffffffffffffffffffffffffffffffff1603610c87576040517f08c379a0000000000000000000000000000000000000000000000000000000008152600401610c7e90611ae6565b60405180910390fd5b5f816001015f9054906101000a900473ffffffffffffffffffffffffffffffffffffffff1690508073ffffffffffffffffffffffffffffffffffffffff166108fc3490811502906040515f60405180830381858888f19350505050158015610cf1573d5f803e3d5ffd5b5033826001015f6101000a81548173ffffffffffffffffffffffffffffffffffffffff021916908373ffffffffffffffffffffffffffffffffffffffff1602179055505f826004015f6101000a81548160ff0219169083151502179055503373ffffffffffffffffffffffffffffffffffffffff168173ffffffffffffffffffffffffffffffffffffffff16847f807451718126bb3ea1827b4f2dcd9babf574bca415f9f210235f670d7c6e203034604051610dad9190611016565b60405180910390a4505050565b6003602052805f5260405f205f91509050805f015490806001015f9054906101000a900473ffffffffffffffffffffffffffffffffffffffff1690806002018054610e04906115ec565b80601f0160208091040260200160405190810160405280929190818152602001828054610e30906115ec565b8015610e7b5780601f10610e5257610100808354040283529160200191610e7b565b820191905f5260205f20905b815481529060010190602001808311610e5e57829003601f168201915b505050505090806003015490806004015f9054906101000a900460ff16905085565b6040518060a001604052805f81526020015f73ffffffffffffffffffffffffffffffffffffffff168152602001606081526020015f81526020015f151581525090565b5f819050919050565b7f4e487b71000000000000000000000000000000000000000000000000000000005f52601160045260245ffd5b5f610f2082610ee0565b9150610f2b83610ee0565b9250828201905080821115610f4357610f42610ee9565b5b92915050565b5f604051905090565b5f80fd5b5f80fd5b610f6381610ee0565b8114610f6d575f80fd5b50565b5f81359050610f7e81610f5a565b92915050565b5f60208284031215610f9957610f98610f52565b5b5f610fa684828501610f70565b91505092915050565b5f73ffffffffffffffffffffffffffffffffffffffff82169050919050565b5f610fd882610faf565b9050919050565b610fe881610fce565b82525050565b5f6020820190506110015f830184610fdf565b92915050565b61101081610ee0565b82525050565b5f6020820190506110295f830184611007565b92915050565b5f81519050919050565b5f82825260208201905092915050565b5f5b8381101561106657808201518184015260208101905061104b565b5f8484015250505050565b5f601f19601f8301169050919050565b5f61108b8261102f565b6110958185611039565b93506110a5818560208601611049565b6110ae81611071565b840191505092915050565b5f8115159050919050565b6110cd816110b9565b82525050565b5f60a0820190506110e65f830188611007565b6110f36020830187610fdf565b81810360408301526111058186611081565b90506111146060830185611007565b61112160808301846110c4565b9695505050505050565b61113481610fce565b811461113e575f80fd5b50565b5f8135905061114f8161112b565b92915050565b5f6020828403121561116a57611169610f52565b5b5f61117784828501611141565b91505092915050565b5f81519050919050565b5f82825260208201905092915050565b5f819050602082019050919050565b6111b281610ee0565b82525050565b6111c181610fce565b82525050565b5f82825260208201905092915050565b5f6111e18261102f565b6111eb81856111c7565b93506111fb818560208601611049565b61120481611071565b840191505092915050565b611218816110b9565b82525050565b5f60a083015f8301516112335f8601826111a9565b50602083015161124660208601826111b8565b506040830151848203604086015261125e82826111d7565b915050606083015161127360608601826111a9565b506080830151611286608086018261120f565b508091505092915050565b5f61129c838361121e565b905092915050565b5f602082019050919050565b5f6112ba82611180565b6112c4818561118a565b9350836020820285016112d68561119a565b805f5b8581101561131157848403895281516112f28582611291565b94506112fd836112a4565b925060208a019950506001810190506112d9565b50829750879550505050505092915050565b5f6020820190508181035f83015261133b81846112b0565b905092915050565b5f80fd5b5f80fd5b7f4e487b71000000000000000000000000000000000000000000000000000000005f52604160045260245ffd5b61138182611071565b810181811067ffffffffffffffff821117156113a05761139f61134b565b5b80604052505050565b5f6113b2610f49565b90506113be8282611378565b919050565b5f67ffffffffffffffff8211156113dd576113dc61134b565b5b6113e682611071565b9050602081019050919050565b828183375f83830152505050565b5f61141361140e846113c3565b6113a9565b90508281526020810184848401111561142f5761142e611347565b5b61143a8482856113f3565b509392505050565b5f82601f83011261145657611455611343565b5b8135611466848260208601611401565b91505092915050565b5f806040838503121561148557611484610f52565b5b5f83013567ffffffffffffffff8111156114a2576114a1610f56565b5b6114ae85828601611442565b92505060206114bf85828601610f70565b9150509250929050565b7f4f6e6c7920746865206c616e6420726567697374727920617574686f726974795f8201527f2063616e20706572666f726d207468697320616374696f6e0000000000000000602082015250565b5f611523603883611039565b915061152e826114c9565b604082019050919050565b5f6020820190508181035f83015261155081611517565b9050919050565b7f4e6f7420656e6f7567682062616c616e636500000000000000000000000000005f82015250565b5f61158b601283611039565b915061159682611557565b602082019050919050565b5f6020820190508181035f8301526115b88161157f565b9050919050565b7f4e487b71000000000000000000000000000000000000000000000000000000005f52602260045260245ffd5b5f600282049050600182168061160357607f821691505b602082108103611616576116156115bf565b5b50919050565b7f496e76616c6964206164647265737300000000000000000000000000000000005f82015250565b5f611650600f83611039565b915061165b8261161c565b602082019050919050565b5f6020820190508181035f83015261167d81611644565b9050919050565b5f61168e82610ee0565b91507fffffffffffffffffffffffffffffffffffffffffffffffffffffffffffffffff82036116c0576116bf610ee9565b5b600182019050919050565b7f4e487b71000000000000000000000000000000000000000000000000000000005f52603260045260245ffd5b7f5072696365206d7573742062652067726561746572207468616e2030000000005f82015250565b5f61172c601c83611039565b9150611737826116f8565b602082019050919050565b5f6020820190508181035f83015261175981611720565b9050919050565b5f819050815f5260205f209050919050565b5f6020601f8301049050919050565b5f82821b905092915050565b5f600883026117bc7fffffffffffffffffffffffffffffffffffffffffffffffffffffffffffffffff82611781565b6117c68683611781565b95508019841693508086168417925050509392505050565b5f819050919050565b5f6118016117fc6117f784610ee0565b6117de565b610ee0565b9050919050565b5f819050919050565b61181a836117e7565b61182e61182682611808565b84845461178d565b825550505050565b5f90565b611842611836565b61184d818484611811565b505050565b5b81811015611870576118655f8261183a565b600181019050611853565b5050565b601f8211156118b55761188681611760565b61188f84611772565b8101602085101561189e578190505b6118b26118aa85611772565b830182611852565b50505b505050565b5f82821c905092915050565b5f6118d55f19846008026118ba565b1980831691505092915050565b5f6118ed83836118c6565b9150826002028217905092915050565b6119068261102f565b67ffffffffffffffff81111561191f5761191e61134b565b5b61192982546115ec565b611934828285611874565b5f60209050601f831160018114611965575f8415611953578287015190505b61195d85826118e2565b8655506119c4565b601f19841661197386611760565b5f5b8281101561199a57848901518255600182019150602085019450602081019050611975565b868310156119b757848901516119b3601f8916826118c6565b8355505b6001600288020188555050505b505050505050565b7f4c616e64206e6f7420666f722073616c650000000000000000000000000000005f82015250565b5f611a00601183611039565b9150611a0b826119cc565b602082019050919050565b5f6020820190508181035f830152611a2d816119f4565b9050919050565b7f496e73756666696369656e74207061796d656e740000000000000000000000005f82015250565b5f611a68601483611039565b9150611a7382611a34565b602082019050919050565b5f6020820190508181035f830152611a9581611a5c565b9050919050565b7f4f776e65722063616e6e6f7420627579207468656972206f776e206c616e64005f82015250565b5f611ad0601f83611039565b9150611adb82611a9c565b602082019050919050565b5f6020820190508181035f830152611afd81611ac4565b905091905056fea2646970667358221220de50f24384eaa3d02c2d25582029690a0f298bc2852a70eec463668bc30bdc0a64736f6c63430008150033",
  "immutableReferences": {},
  "source": "// SPDX-License-Identifier: MIT\npragma solidity ^0.8.20;\n\ncontract LandRegistry {\n    address public landRegistryAuthority;\n    uint public landCounter = 0;\n    uint public contractBalance; //  Track balance inside contract\n\n    constructor() payable {\n        landRegistryAuthority = msg.sender;\n        contractBalance = msg.value; //  Store ETH received during deployment\n    }\n\n    modifier onlyAuthority() {\n        require(\n            msg.sender == landRegistryAuthority,\n            \"Only the land registry authority can perform this action\"\n        );\n        _;\n    }\n\n    struct Land {\n        uint id;\n        address owner;\n        string location;\n        uint price;\n        bool forSale;\n    }\n\n    mapping(uint => Land) public lands;\n\n    event LandRegistered(uint indexed id, address indexed owner);\n    event LandPurchased(\n        uint indexed id,\n        address indexed oldOwner,\n        address indexed newOwner,\n        uint price\n    );\n    event AuthorityChanged(address indexed newAuthority);\n    event Withdrawal(address indexed to, uint amount);\n\n    function setAuthority(address _newAuthority) public onlyAuthority {\n        require(_newAuthority != address(0), \"Invalid address\");\n        landRegistryAuthority = _newAuthority;\n        emit AuthorityChanged(_newAuthority);\n    }\n\n    function registerLand(string memory _location, uint _price) public {\n        require(_price > 0, \"Price must be greater than 0\");\n        landCounter++;\n        lands[landCounter] = Land(\n            landCounter,\n            msg.sender,\n            _location,\n            _price,\n            true\n        );\n        emit LandRegistered(landCounter, msg.sender);\n    }\n\n    function getAvailableLands() public view returns (Land[] memory) {\n        uint availableCount = 0;\n        for (uint i = 1; i <= landCounter; i++) {\n            if (lands[i].forSale) availableCount++;\n        }\n\n        Land[] memory availableLands = new Land[](availableCount);\n        uint index = 0;\n        for (uint i = 1; i <= landCounter; i++) {\n            if (lands[i].forSale) {\n                availableLands[index] = lands[i];\n                index++;\n            }\n        }\n        return availableLands;\n    }\n\n    function buyLand(uint _id) public payable {\n        Land storage land = lands[_id];\n        require(land.forSale, \"Land not for sale\");\n        require(msg.value >= land.price, \"Insufficient payment\");\n        require(msg.sender != land.owner, \"Owner cannot buy their own land\");\n\n        address payable seller = payable(land.owner);\n        seller.transfer(msg.value);\n\n        land.owner = msg.sender;\n        land.forSale = false;\n\n        emit LandPurchased(_id, seller, msg.sender, msg.value);\n    }\n\n    function getLandById(\n        uint _id\n    ) public view returns (uint, address, string memory, uint, bool) {\n        Land memory land = lands[_id];\n        return (land.id, land.owner, land.location, land.price, land.forSale);\n    }\n\n    //  View current ETH balance of contract\n    function getContractBalance() public view returns (uint) {\n        return address(this).balance;\n    }\n\n    //  Only authority can withdraw ETH\n    function withdraw(uint _amount) public onlyAuthority {\n        require(_amount <= address(this).balance, \"Not enough balance\");\n        payable(landRegistryAuthority).transfer(_amount);\n        emit Withdrawal(landRegistryAuthority, _amount);\n    }\n\n    //  Receive additional ETH\n    receive() external payable {\n        contractBalance += msg.value;\n    }\n}\n",
  "sourcePath": "/home/vedant04/Desktop/blockchain/land-registry-blockchain/contracts/LandRegistry.sol",
  "compiler": {
    "name": "solc",
    "version": "0.8.21+commit.d9974bed.Emscripten.clang"
  },
  "schemaVersion": "3.4.16",
  "updatedAt": "2025-04-20T11:03:59.434Z",
  "networkType": "ethereum",
  "devdoc": {
    "kind": "dev",
    "methods": {},
    "version": 1
  },
  "userdoc": {
    "kind": "user",
    "methods": {},
    "version": 1
  }
}