{
  "contractName": "ProofOfAuthority",
  "abi": [
    {
      "inputs": [],
      "stateMutability": "nonpayable",
      "type": "constructor"
    },
    {
      "inputs": [],
      "name": "authority",
      "outputs": [
        {
          "internalType": "address",
          "name": "",
          "type": "address"
        }
      ],
      "stateMutability": "view",
      "type": "function",
      "constant": true
    },
    {
      "inputs": [
        {
          "internalType": "address",
          "name": "newAuthority",
          "type": "address"
        }
      ],
      "name": "transferAuthority",
      "outputs": [],
      "stateMutability": "nonpayable",
      "type": "function"
    },
    {
      "inputs": [
        {
          "internalType": "address",
          "name": "addr",
          "type": "address"
        }
      ],
      "name": "isAuthority",
      "outputs": [
        {
          "internalType": "bool",
          "name": "",
          "type": "bool"
        }
      ],
      "stateMutability": "view",
      "type": "function",
      "constant": true
    }
  ],
  "bytecode": "0x608060405234801561000f575f80fd5b50335f806101000a81548173ffffffffffffffffffffffffffffffffffffffff021916908373ffffffffffffffffffffffffffffffffffffffff1602179055506103888061005c5f395ff3fe608060405234801561000f575f80fd5b506004361061003f575f3560e01c80632330f247146100435780633078db6c14610073578063bf7e214f1461008f575b5f80fd5b61005d60048036038101906100589190610254565b6100ad565b60405161006a9190610299565b60405180910390f35b61008d60048036038101906100889190610254565b610104565b005b6100976101d3565b6040516100a491906102c1565b60405180910390f35b5f805f9054906101000a900473ffffffffffffffffffffffffffffffffffffffff1673ffffffffffffffffffffffffffffffffffffffff168273ffffffffffffffffffffffffffffffffffffffff16149050919050565b5f8054906101000a900473ffffffffffffffffffffffffffffffffffffffff1673ffffffffffffffffffffffffffffffffffffffff163373ffffffffffffffffffffffffffffffffffffffff1614610191576040517f08c379a000000000000000000000000000000000000000000000000000000000815260040161018890610334565b60405180910390fd5b805f806101000a81548173ffffffffffffffffffffffffffffffffffffffff021916908373ffffffffffffffffffffffffffffffffffffffff16021790555050565b5f8054906101000a900473ffffffffffffffffffffffffffffffffffffffff1681565b5f80fd5b5f73ffffffffffffffffffffffffffffffffffffffff82169050919050565b5f610223826101fa565b9050919050565b61023381610219565b811461023d575f80fd5b50565b5f8135905061024e8161022a565b92915050565b5f60208284031215610269576102686101f6565b5b5f61027684828501610240565b91505092915050565b5f8115159050919050565b6102938161027f565b82525050565b5f6020820190506102ac5f83018461028a565b92915050565b6102bb81610219565b82525050565b5f6020820190506102d45f8301846102b2565b92915050565b5f82825260208201905092915050565b7f4e6f7420617574686f72697a65640000000000000000000000000000000000005f82015250565b5f61031e600e836102da565b9150610329826102ea565b602082019050919050565b5f6020820190508181035f83015261034b81610312565b905091905056fea264697066735822122049f057d48bf659f2e6142821e96d926925650c14fd4dc1b808abcf8d2cb1c36864736f6c63430008150033",
  "immutableReferences": {},
  "source": "// SPDX-License-Identifier: MIT\npragma solidity ^0.8.20;\n\ncontract ProofOfAuthority {\n    address public authority;\n\n    constructor() {\n        authority = msg.sender;\n    }\n\n    modifier onlyAuthority() {\n        require(msg.sender == authority, \"Not authorized\");\n        _;\n    }\n\n    function transferAuthority(address newAuthority) external onlyAuthority {\n        authority = newAuthority;\n    }\n\n    function isAuthority(address addr) external view returns (bool) {\n        return addr == authority;\n    }\n}\n\n// pragma solidity ^0.8.21;\n\n// contract ProofOfAuthority {\n//     mapping(address => bool) public validators;\n\n//     event ValidatorAdded(address validator);\n//     event ValidatorRemoved(address validator);\n\n//     modifier onlyValidator() {\n//         require(validators[msg.sender], \"Not a validator\");\n//         _;\n//     }\n\n//     constructor() {\n//         validators[msg.sender] = true;\n//     }\n\n//     function addValidator(address _validator) external onlyValidator {\n//         validators[_validator] = true;\n//         emit ValidatorAdded(_validator);\n//     }\n\n//     function removeValidator(address _validator) external onlyValidator {\n//         validators[_validator] = false;\n//         emit ValidatorRemoved(_validator);\n//     }\n\n//     function isValidator(address _addr) external view returns (bool) {\n//         return validators[_addr];\n//     }\n// }\n",
  "sourcePath": "/home/vedant04/Desktop/blockchain/land-registry-blockchain/contracts/ProofOfAuthority.sol",
  "compiler": {
    "name": "solc",
    "version": "0.8.21+commit.d9974bed.Emscripten.clang"
  },
  "schemaVersion": "3.4.16",
  "updatedAt": "2025-04-20T11:03:59.324Z",
  "networkType": "ethereum",
  "devdoc": {
    "kind": "dev",
    "methods": {},
    "version": 1
  },
  "userdoc": {
    "kind": "user",
    "methods": {},
    "version": 1
  }
}