{
  "contractName": "ProofOfAuthority",
  "abi": [
    {
      "inputs": [],
      "stateMutability": "nonpayable",
      "type": "constructor"
    },
    {
      "anonymous": false,
      "inputs": [
        {
          "indexed": false,
          "internalType": "address",
          "name": "validator",
          "type": "address"
        }
      ],
      "name": "ValidatorAdded",
      "type": "event"
    },
    {
      "anonymous": false,
      "inputs": [
        {
          "indexed": false,
          "internalType": "address",
          "name": "validator",
          "type": "address"
        }
      ],
      "name": "ValidatorRemoved",
      "type": "event"
    },
    {
      "inputs": [
        {
          "internalType": "address",
          "name": "",
          "type": "address"
        }
      ],
      "name": "validators",
      "outputs": [
        {
          "internalType": "bool",
          "name": "",
          "type": "bool"
        }
      ],
      "stateMutability": "view",
      "type": "function",
      "constant": true
    },
    {
      "inputs": [
        {
          "internalType": "address",
          "name": "_validator",
          "type": "address"
        }
      ],
      "name": "addValidator",
      "outputs": [],
      "stateMutability": "nonpayable",
      "type": "function"
    },
    {
      "inputs": [
        {
          "internalType": "address",
          "name": "_validator",
          "type": "address"
        }
      ],
      "name": "removeValidator",
      "outputs": [],
      "stateMutability": "nonpayable",
      "type": "function"
    },
    {
      "inputs": [
        {
          "internalType": "address",
          "name": "_addr",
          "type": "address"
        }
      ],
      "name": "isValidator",
      "outputs": [
        {
          "internalType": "bool",
          "name": "",
          "type": "bool"
        }
      ],
      "stateMutability": "view",
      "type": "function",
      "constant": true
    }
  ],
  "bytecode": "0x608060405234801561000f575f80fd5b5060015f803373ffffffffffffffffffffffffffffffffffffffff1673ffffffffffffffffffffffffffffffffffffffff1681526020019081526020015f205f6101000a81548160ff021916908315150217905550610510806100715f395ff3fe608060405234801561000f575f80fd5b506004361061004a575f3560e01c806340a141ff1461004e5780634d238c8e1461006a578063fa52c7d814610086578063facd743b146100b6575b5f80fd5b610068600480360381019061006391906103dc565b6100e6565b005b610084600480360381019061007f91906103dc565b6101fb565b005b6100a0600480360381019061009b91906103dc565b610311565b6040516100ad9190610421565b60405180910390f35b6100d060048036038101906100cb91906103dc565b61032d565b6040516100dd9190610421565b60405180910390f35b5f803373ffffffffffffffffffffffffffffffffffffffff1673ffffffffffffffffffffffffffffffffffffffff1681526020019081526020015f205f9054906101000a900460ff1661016e576040517f08c379a000000000000000000000000000000000000000000000000000000000815260040161016590610494565b60405180910390fd5b5f805f8373ffffffffffffffffffffffffffffffffffffffff1673ffffffffffffffffffffffffffffffffffffffff1681526020019081526020015f205f6101000a81548160ff0219169083151502179055507fe1434e25d6611e0db941968fdc97811c982ac1602e951637d206f5fdda9dd8f1816040516101f091906104c1565b60405180910390a150565b5f803373ffffffffffffffffffffffffffffffffffffffff1673ffffffffffffffffffffffffffffffffffffffff1681526020019081526020015f205f9054906101000a900460ff16610283576040517f08c379a000000000000000000000000000000000000000000000000000000000815260040161027a90610494565b60405180910390fd5b60015f808373ffffffffffffffffffffffffffffffffffffffff1673ffffffffffffffffffffffffffffffffffffffff1681526020019081526020015f205f6101000a81548160ff0219169083151502179055507fe366c1c0452ed8eec96861e9e54141ebff23c9ec89fe27b996b45f5ec38849878160405161030691906104c1565b60405180910390a150565b5f602052805f5260405f205f915054906101000a900460ff1681565b5f805f8373ffffffffffffffffffffffffffffffffffffffff1673ffffffffffffffffffffffffffffffffffffffff1681526020019081526020015f205f9054906101000a900460ff169050919050565b5f80fd5b5f73ffffffffffffffffffffffffffffffffffffffff82169050919050565b5f6103ab82610382565b9050919050565b6103bb816103a1565b81146103c5575f80fd5b50565b5f813590506103d6816103b2565b92915050565b5f602082840312156103f1576103f061037e565b5b5f6103fe848285016103c8565b91505092915050565b5f8115159050919050565b61041b81610407565b82525050565b5f6020820190506104345f830184610412565b92915050565b5f82825260208201905092915050565b7f4e6f7420612076616c696461746f7200000000000000000000000000000000005f82015250565b5f61047e600f8361043a565b91506104898261044a565b602082019050919050565b5f6020820190508181035f8301526104ab81610472565b9050919050565b6104bb816103a1565b82525050565b5f6020820190506104d45f8301846104b2565b9291505056fea26469706673582212206afe32ce2be8c340f1188c0d3af9726597cd0ef0d848a9f89ec27c7061969e7464736f6c63430008150033",
  "immutableReferences": {},
  "source": "// SPDX-License-Identifier: MIT\npragma solidity ^0.8.21;\n\ncontract ProofOfAuthority {\n    mapping(address => bool) public validators;\n\n    event ValidatorAdded(address validator);\n    event ValidatorRemoved(address validator);\n\n    modifier onlyValidator() {\n        require(validators[msg.sender], \"Not a validator\");\n        _;\n    }\n\n    constructor() {\n        validators[msg.sender] = true;\n    }\n\n    function addValidator(address _validator) external onlyValidator {\n        validators[_validator] = true;\n        emit ValidatorAdded(_validator);\n    }\n\n    function removeValidator(address _validator) external onlyValidator {\n        validators[_validator] = false;\n        emit ValidatorRemoved(_validator);\n    }\n\n    function isValidator(address _addr) external view returns (bool) {\n        return validators[_addr];\n    }\n}\n",
  "sourcePath": "/home/vedant04/Desktop/blockchain/land-registry-blockchain/contracts/ProofOfAuthority.sol",
  "compiler": {
    "name": "solc",
    "version": "0.8.21+commit.d9974bed.Emscripten.clang"
  },
  "schemaVersion": "3.4.16",
  "updatedAt": "2025-04-19T10:14:45.009Z",
  "networkType": "ethereum",
  "devdoc": {
    "kind": "dev",
    "methods": {},
    "version": 1
  },
  "userdoc": {
    "kind": "user",
    "methods": {},
    "version": 1
  }
}