{
  "contractName": "Stakeholders",
  "abi": [
    {
      "inputs": [],
      "stateMutability": "nonpayable",
      "type": "constructor"
    },
    {
      "inputs": [
        {
          "internalType": "address",
          "name": "",
          "type": "address"
        }
      ],
      "name": "buyers",
      "outputs": [
        {
          "internalType": "bool",
          "name": "",
          "type": "bool"
        }
      ],
      "stateMutability": "view",
      "type": "function",
      "constant": true
    },
    {
      "inputs": [
        {
          "internalType": "address",
          "name": "",
          "type": "address"
        }
      ],
      "name": "government",
      "outputs": [
        {
          "internalType": "bool",
          "name": "",
          "type": "bool"
        }
      ],
      "stateMutability": "view",
      "type": "function",
      "constant": true
    },
    {
      "inputs": [
        {
          "internalType": "address",
          "name": "",
          "type": "address"
        }
      ],
      "name": "sellers",
      "outputs": [
        {
          "internalType": "bool",
          "name": "",
          "type": "bool"
        }
      ],
      "stateMutability": "view",
      "type": "function",
      "constant": true
    },
    {
      "inputs": [
        {
          "internalType": "address",
          "name": "_addr",
          "type": "address"
        }
      ],
      "name": "assignBuyer",
      "outputs": [],
      "stateMutability": "nonpayable",
      "type": "function"
    },
    {
      "inputs": [
        {
          "internalType": "address",
          "name": "_addr",
          "type": "address"
        }
      ],
      "name": "assignSeller",
      "outputs": [],
      "stateMutability": "nonpayable",
      "type": "function"
    },
    {
      "inputs": [
        {
          "internalType": "address",
          "name": "_addr",
          "type": "address"
        }
      ],
      "name": "isBuyer",
      "outputs": [
        {
          "internalType": "bool",
          "name": "",
          "type": "bool"
        }
      ],
      "stateMutability": "view",
      "type": "function",
      "constant": true
    },
    {
      "inputs": [
        {
          "internalType": "address",
          "name": "_addr",
          "type": "address"
        }
      ],
      "name": "isSeller",
      "outputs": [
        {
          "internalType": "bool",
          "name": "",
          "type": "bool"
        }
      ],
      "stateMutability": "view",
      "type": "function",
      "constant": true
    }
  ],
  "bytecode": "0x608060405234801561000f575f80fd5b5060015f803373ffffffffffffffffffffffffffffffffffffffff1673ffffffffffffffffffffffffffffffffffffffff1681526020019081526020015f205f6101000a81548160ff0219169083151502179055506105ca806100715f395ff3fe608060405234801561000f575f80fd5b506004361061007b575f3560e01c80636d47ab72116100595780636d47ab72146100fb57806397a993aa1461012b578063bc7ff2741461015b578063ee95feaf146101775761007b565b80630dacad2e1461007f5780632a55feec1461009b57806349bf5d6b146100cb575b5f80fd5b610099600480360381019061009491906104be565b6101a7565b005b6100b560048036038101906100b091906104be565b610286565b6040516100c29190610503565b60405180910390f35b6100e560048036038101906100e091906104be565b6102d8565b6040516100f29190610503565b60405180910390f35b610115600480360381019061011091906104be565b6102f4565b6040516101229190610503565b60405180910390f35b610145600480360381019061014091906104be565b610311565b6040516101529190610503565b60405180910390f35b610175600480360381019061017091906104be565b61032e565b005b610191600480360381019061018c91906104be565b61040e565b60405161019e9190610503565b60405180910390f35b5f803373ffffffffffffffffffffffffffffffffffffffff1673ffffffffffffffffffffffffffffffffffffffff1681526020019081526020015f205f9054906101000a900460ff1661022f576040517f08c379a000000000000000000000000000000000000000000000000000000000815260040161022690610576565b60405180910390fd5b6001805f8373ffffffffffffffffffffffffffffffffffffffff1673ffffffffffffffffffffffffffffffffffffffff1681526020019081526020015f205f6101000a81548160ff02191690831515021790555050565b5f60015f8373ffffffffffffffffffffffffffffffffffffffff1673ffffffffffffffffffffffffffffffffffffffff1681526020019081526020015f205f9054906101000a900460ff169050919050565b5f602052805f5260405f205f915054906101000a900460ff1681565b6002602052805f5260405f205f915054906101000a900460ff1681565b6001602052805f5260405f205f915054906101000a900460ff1681565b5f803373ffffffffffffffffffffffffffffffffffffffff1673ffffffffffffffffffffffffffffffffffffffff1681526020019081526020015f205f9054906101000a900460ff166103b6576040517f08c379a00000000000000000000000000000000000000000000000000000000081526004016103ad90610576565b60405180910390fd5b600160025f8373ffffffffffffffffffffffffffffffffffffffff1673ffffffffffffffffffffffffffffffffffffffff1681526020019081526020015f205f6101000a81548160ff02191690831515021790555050565b5f60025f8373ffffffffffffffffffffffffffffffffffffffff1673ffffffffffffffffffffffffffffffffffffffff1681526020019081526020015f205f9054906101000a900460ff169050919050565b5f80fd5b5f73ffffffffffffffffffffffffffffffffffffffff82169050919050565b5f61048d82610464565b9050919050565b61049d81610483565b81146104a7575f80fd5b50565b5f813590506104b881610494565b92915050565b5f602082840312156104d3576104d2610460565b5b5f6104e0848285016104aa565b91505092915050565b5f8115159050919050565b6104fd816104e9565b82525050565b5f6020820190506105165f8301846104f4565b92915050565b5f82825260208201905092915050565b7f4e6f7420676f7665726e6d656e740000000000000000000000000000000000005f82015250565b5f610560600e8361051c565b915061056b8261052c565b602082019050919050565b5f6020820190508181035f83015261058d81610554565b905091905056fea2646970667358221220b882513fcde904ac2b7d4afa616262b097e261bd3901c3908690f9c2d24f0b5664736f6c63430008150033",
  "immutableReferences": {},
  "source": "// SPDX-License-Identifier: MIT\npragma solidity ^0.8.21;\n\ncontract Stakeholders {\n    mapping(address => bool) public government;\n    mapping(address => bool) public buyers;\n    mapping(address => bool) public sellers;\n\n    modifier onlyGovernment() {\n        require(government[msg.sender], \"Not government\");\n        _;\n    }\n\n    modifier onlyBuyer() {\n        require(buyers[msg.sender], \"Not buyer\");\n        _;\n    }\n\n    modifier onlySeller() {\n        require(sellers[msg.sender], \"Not seller\");\n        _;\n    }\n\n    constructor() {\n        government[msg.sender] = true;\n    }\n\n    function assignBuyer(address _addr) external onlyGovernment {\n        buyers[_addr] = true;\n    }\n\n    function assignSeller(address _addr) external onlyGovernment {\n        sellers[_addr] = true;\n    }\n\n    function isBuyer(address _addr) external view returns (bool) {\n        return buyers[_addr];\n    }\n\n    function isSeller(address _addr) external view returns (bool) {\n        return sellers[_addr];\n    }\n}\n",
  "sourcePath": "/home/vedant04/Desktop/blockchain/land-registry-blockchain/contracts/Stakeholders.sol",
  "compiler": {
    "name": "solc",
    "version": "0.8.21+commit.d9974bed.Emscripten.clang"
  },
  "schemaVersion": "3.4.16",
  "updatedAt": "2025-04-23T06:38:09.972Z",
  "networkType": "ethereum",
  "devdoc": {
    "kind": "dev",
    "methods": {},
    "version": 1
  },
  "userdoc": {
    "kind": "user",
    "methods": {},
    "version": 1
  }
}